:020000040800F2
:1000000000800020811600085F11000865110008BB
:100010006B11000871110008771100080000000042
:100020000000000000000000000000007D1100083A
:100030008B1100080000000099110008A7110008AA
:10004000D1160008D1160008D116000800000000E3
:10005000D1160008D1160008D116000800000000D3
:10006000D1160008D116000800000000D1160008C3
:10007000D1160008D1160008D1160008D1160008C4
:10008000D1160008D1160008D1160008D1160008B4
:10009000D1160008D1160008D1160008D1160008A4
:1000A000D1160008D1160008D1160008D116000894
:1000B000D1160008D1160008D1160008D116000884
:1000C000D1160008D1160008D1160008D116000874
:1000D00000000000D1160008D1160008D116000853
:1000E000D1160008D1160008D1160008D116000854
:1000F000D1160008D1160008D11600080000000033
:1001000000000000D1160008D1160008D116000822
:10011000D1160008D1160008D1160008D116000823
:10012000D1160008D1160008B5110008D116000834
:10013000D11600080000000000000000D1160008E1
:10014000D1160008000000000000000000000000C0
:100150000000000000000000D116000800000000B0
:100160000000000000000000D1160008D1160008B1
:10017000000000000000000000000000000000007F
:10018000000000000000000000000000000000006F
:10019000000000000000000000000000000000005F
:1001A0000000000000000000D1160008D116000871
:1001B000D1160008D1160008D1160008D116000883
:1001C000D1160008D1160008000000000000000051
:1001D000000000000000000000000000D116000830
:1001E000D116000800000000000000000000000020
:1001F00000000000000000000000000000000000FF
:1002000000000000D1160008D11600080000000010
:1002100000000000D11600080000000000000000EF
:10022000000000000000000000000000D1160008DF
:10023000D1160008000000000000000000000000CF
:10024000000000000000000000000000D1160008BF
:08025000D1160008D1160008C8
:1002580010B5054C237833B9044B13B10448AFF3F8
:1002680000800123237010BD6C00002000000000F6
:10027800D87F000808B5034B1BB103490348AFF307
:10028800008008BD0000000070000020D87F000832
:1002980053B94AB9002908BF00281CBF4FF0FF31E5
:1002A8004FF0FF3000F082B9ADF1080C6DE904CED3
:1002B80000F006F8DDF804E0DDE9022304B0704739
:1002C8002DE9F04F099E0D4604460F46002B46D1F6
:1002D8008A4294465ED9B2FA82F343B102FA03FC29
:1002E800C3F120029F409C4020FA02F217434FEAD4
:1002F8001C4E1FFA8CF5220CB7FBFEF10EFB117792
:1003080001FB05F042EA0742904208D91CEB0202C1
:1003180001F1FF3702D2904200F234813946121AB5
:10032800A4B2B2FBFEF00EFB102200FB05F544EA76
:100338000244A54208D91CEB040400F1FF3202D2A2
:10034800A54200F21981104640EA0140641B0021D1
:100358001EB1DC400023C6E90043BDE8F08F8B42A4
:1003680008D9002E00F0FC800021C6E900050846E7
:10037800BDE8F08FB3FA83F100294CD1AB42C0F04D
:10038800F280824240F2EF800846002EE5D0C6E9AE
:100398000047E2E702B9FFDEB2FA82F3002B40F031
:1003A8009F808A1A4FEA1C4E1FFA8CF70121B2FB74
:1003B800FEF50EFB1520220C42EA004207FB05F071
:1003C80090420FD91CEB020205F1FF382CBF4FF009
:1003D80001094FF00009904203D9B9F1000F00F06C
:1003E800CE804546121AA4B2B2FBFEF00EFB1022D4
:1003F80000FB07F744EA0244A74208D91CEB0404AF
:1004080000F1FF3202D2A74200F2B3801046E41B8B
:1004180040EA05409CE7C1F120048B4005FA01FC45
:1004280022FA04F7E5408A401F4320FA04F3884083
:100438004FEA174843EA0C031FFA87FC4FEA1349AF
:10044800B5FBF8FE08FB1E5549EA05450EFB0CF9FD
:10045800A9450ED97D190EF1FF3A2CBF4FF0010BBB
:100468004FF0000BA94503D9BBF1000F00F08D80B8
:10047800D646A5EB09051FFA83F9B5FBF8F308FB87
:10048800135503FB0CFC49EA0545AC4506D97D1913
:1004980003F1FF3801D2AC457ED8434643EA0E4308
:1004A800A5EB0C05A3FB02984545CE46C44602D3EE
:1004B80006D1484504D2013BB9EB020E68EB070CA4
:1004C800002E6FD0B0EB0E0265EB0C05CA4005FAA2
:1004D80004F4CD40184614430021C6E900453CE722
:1004E80002FA03FCC3F1200299409C40D5404FEA30
:1004F8001C4E20FA02F21FFA8CF7B5FBFEF00A43F5
:100508000EFB1055110C41EA054100FB07F58D4221
:100518000ED91CEB010100F1FF382CBF4FF0010987
:100528004FF000098D4202D9B9F1000F31D0404691
:10053800491B92B2B1FBFEF50EFB151142EA0142CE
:1005480005FB07F1914207D91CEB020205F1FF38C0
:1005580001D2914223D84546521A45EA004126E77E
:1005680031463046F9E6841A65EB03020120174646
:100578000BE7644402384AE764440238E4E6023D83
:1005880062442FE702396244C9E6AEF1020E3D44E7
:100598006FE702386144CBE7023B3D447EE7023D0A
:1005A8006244D9E718463146D7E600BF704700BF16
:1005B80080B500AF002210210C4801F02DFC00226C
:1005C80002210A4801F028FC00220421074801F012
:1005D80023FC782001F0F6F801220421034801F0F9
:1005E8001BFC00F0CBFC00BF80BD00BF0000024236
:1005F80080B584B000AF78603960002210211F48B0
:1006080001F00AFC3B681E4AA2FB0323DB0BBB601C
:100618000023FB6024E0FA68BB689A4212D1FA68AA
:1006280013461B049B1A7A68D0183968144BA3FB2D
:100638000123DA0B13461B049B1ACA1A114600F051
:100648006FFD0AE0FA6813461B049B1A7A68134484
:100658004FF6FF71184600F063FDFB680133FB603D
:10066800FA68BB689A42D6D901221021034801F0E2
:10067800D3FB00BF1037BD4680BD00BF000002425B
:100688000180008080B582B000AF0346FB71002274
:100698000821064801F0C0FBFB1D01211846FFF7A1
:1006A800A7FF00BF0837BD4680BD00BF000002425B
:1006B80080B582B000AF0346FB71012208210648CD
:1006C80001F0AAFBFB1D01211846FFF791FF00BFAF
:1006D8000837BD4680BD00BF0000024280B584B027
:1006E80000AF0346FB800023BB81FB881B0A9BB23B
:1006F800DBB23B73FB88DBB27B730122082106481F
:1007080001F08AFB07F10C0302211846FFF770FF7E
:1007180000BF1037BD4680BD0000024290B583B0CF
:1007280000AF0446084611461A462346FB80034696
:10073800BB800B467B8013463B802A20FFF7A2FF35
:10074800FB881B0A9BB2DBB21846FFF7B1FFFB8898
:10075800DBB21846FFF7ACFF7B881B0A9BB2DBB203
:100768001846FFF7A5FF7B88DBB21846FFF7A0FF06
:100778002B20FFF787FFBB881B0A9BB2DBB218460A
:10078800FFF796FFBB88DBB21846FFF791FF3B885F
:100798001B0A9BB2DBB21846FFF78AFF3B88DBB225
:1007A8001846FFF785FF2C20FFF76CFF00BF0C37BA
:1007B800BD4690BD80B584B000AF0346FB800023E2
:1007C8003B81FB881B0A9BB2DBB23B72FB88DBB226
:1007D8007B72EF23EF2200210020FFF79FFF002309
:1007E800BB810DE0BB895B00397A134AD154BB89C0
:1007F8005B000133797A104AD154BB890133BB813C
:10080800BB89B3F5107FEDD3012208210B4801F015
:1008180003FB0023FB8107E04FF490610648FFF7D4
:10082800E7FEFB890133FB81FB89632BF4D900BF09
:1008380000BF1037BD4680BD88000020000002427E
:1008480090B587B000AF0446084611461A462346BD
:10085800FB800346BB800B46FB701346BB7000232E
:10086800FB750023BB7500237B7500233B610023C8
:100878003B730023FB8100237B73FB78203BFB70D9
:10088800FA88BB785B08DBB2C3F1F0039A4200F345
:10089800F680BA88BB78C3F1F0039A4200F3EF8080
:1008A800BB785B08DBB29AB2FB8813449BB2013B6E
:1008B8009CB2BB789AB2BB8813449BB2013B9BB2F3
:1008C800B988F8882246FFF729FFBB780C3B142B20
:1008D80000F2D78001A252F823F000BF39090008BE
:1008E8008B0A00088B0A00088B0A00084B090008CD
:1008F8008B0A00088B0A00088B0A00088B0A00087C
:100908008B0A00088B0A00088B0A000857090008A0
:100918008B0A00088B0A00088B0A00088B0A00085B
:100928008B0A00088B0A00088B0A0008690900086E
:10093800FA7813465B0013449B00544A13443B6106
:1009480014E0FB781B01524A13443B610EE0FA782D
:1009580013465B0013441B014E4A13443B6105E0F8
:10096800FB78DB014C4A13443B6100BFBB78182B72
:1009780042D0BB78DB08DBB21A46BB7803F007032A
:10098800DBB2002B14BF01230023DBB21344DAB21D
:10099800BB785B08DBB212FB03F33B7300237B7568
:1009A80025E07B7D3A6913441B78FB750023BB75F2
:1009B80017E097F91730002B02DABB8DFB8106E0B0
:1009C80097F82830002B02D1344B1B88FB81FB8918
:1009D8001846FFF783FEFB7D5B00FB75BB7D01338B
:1009E800BB75BB7D072BE4D97B7D01337B757A7D95
:1009F8003B7B9A42D5D345E0BB785B003B73002331
:100A08007B7537E0FA78797D224813465B001344FA
:100A18001B0103440B441B78FB757B7D03F001032A
:100A2800DBB2002B02D108237B7301E004237B7324
:100A38000023BB7517E097F91730002B02DABB8D3E
:100A4800FB8106E097F82830002B02D1134B1B8856
:100A5800FB81FB891846FFF741FEFB7D5B00FB75B8
:100A6800BB7D0133BB75BA7D7B7B9A42E3D37B7D2B
:100A780001337B757A7D3B7B9A42C3D302E000BF8A
:100A880000E000BF1C37BD4690BD00BF7480000861
:100A9800E8840008D88A0008A89C00080000002004
:100AA80090B587B002AF0446084611461A46234659
:100AB800FB800346BB800B467B8013463B80FB884C
:100AC800FB737A88FB8813447B803A88BB8813447D
:100AD8003B8027E0FA887B889A4207D3FB7BFB8020
:100AE80097F820309AB2BB881344BB80BA883B88F9
:100AF8009A4220D27B6A1A7897F82040B988F888F9
:100B08003B8D0193002300932346FFF799FE97F846
:100B180020305B08DBB29AB2FB881344FB807B6A07
:100B280001337B627B6A1B787E2B05D87B6A1B7836
:100B38001F2BCFD800E000BF00BF1437BD4690BDC3
:100B480080B500AFFFF734FD782000F03BFE1120A0
:100B5800FFF798FD782000F035FE3620FFF792FD6C
:100B68000020FFF7A5FD3A20FFF78CFD6520FFF771
:100B78009FFDB220FFF786FD0C20FFF799FD0C20A2
:100B8800FFF796FD0020FFF793FD3320FFF790FD58
:100B98003320FFF78DFDB720FFF774FD7220FFF7B4
:100BA80087FDBB20FFF76EFD3D20FFF781FDC020CC
:100BB800FFF768FD2C20FFF77BFDC220FFF762FDE1
:100BC8000120FFF775FDC320FFF75CFD1920FFF733
:100BD8006FFDC420FFF756FD2020FFF769FDC620F2
:100BE800FFF750FD0F20FFF763FDD020FFF74AFD08
:100BF800A420FFF75DFDA120FFF75AFDE020FFF7D5
:100C080041FDD020FFF754FD0420FFF751FD0D20D2
:100C1800FFF74EFD1120FFF74BFD1320FFF748FDAE
:100C28002B20FFF745FD3F20FFF742FD5420FFF73B
:100C38003FFD4C20FFF73CFD1820FFF739FD0D2044
:100C4800FFF736FD0B20FFF733FD1F20FFF730FDC0
:100C58002320FFF72DFDE120FFF714FDD020FFF73B
:100C680027FD0420FFF724FD0C20FFF721FD1120AC
:100C7800FFF71EFD1320FFF71BFD2C20FFF718FDC3
:100C88003F20FFF715FD4420FFF712FD5120FFF725
:100C98000FFD2F20FFF70CFD1F20FFF709FD1F2078
:100CA800FFF706FD2020FFF703FD2320FFF700FDD7
:100CB8002120FFF7E7FC2920FFF7E4FCEF23EF22D0
:100CC80000210020FFF72AFD4FF6FF70FFF772FDA5
:100CD80001220221024801F09FF800BF80BD00BF39
:100CE8000000024280B588B000AF07F10C03002273
:100CF8001A605A609A60DA601A612A4BD3F88C300D
:100D0800284A43F00403C2F88C30264BD3F88C30C1
:100D180003F00403BB60BB68224BD3F88C30214A34
:100D280043F08003C2F88C301E4BD3F88C3003F0AC
:100D380080037B607B681B4BD3F88C30194A43F0E7
:100D48000103C2F88C30174BD3F88C3003F0010341
:100D58003B603B6801224FF48F71134801F05CF847
:100D68001E23FB6001233B6101237B610223BB61DE
:100D780007F10C0319460C4800F0FCFE4FF4807391
:100D8800FB6001233B6101237B610023BB6107F109
:100D98000C031946044800F0EDFE00BF2037BD469D
:100DA80080BD00BF000C02440000024280B500AFC5
:100DB80001F064F80346002B01D000F0D9F800BF19
:100DC80080BD000080B500AF0A2006F0DDFC0A48AF
:100DD80006F036FD094806F033FD094806F030FDF7
:100DE800084806F02DFD044806F02AFD064806F0DE
:100DF80027FD00BF80BD00BFF07F000814800008F9
:100E080020800008348000084480000880B584B041
:100E180004AF00F05BFC00F045F8FFF763FFFFF755
:100E2800C5FF00F0ABF800F0F3FAFFF7CBFFFFF7D0
:100E380087FE4FF478430293164B019320230093C7
:100E48002023F02205210020FFF72AFE4FF47843E3
:100E58000293114B0193182300931823F0222221A7
:100E68000020FFF71DFE4FF4784302930B4B0193CC
:100E7800102300931023F0223C210020FFF710FEDE
:100E88004FF48071064800F0DFFF4FF4FA7000F06D
:100E980099FCF5E74880000858800008648000083D
:100EA8000000024280B59CB000AF07F12003502239
:100EB8000021184606F0A4FD07F1080300221A6075
:100EC8005A609A60DA601A615A61284B1B69274A8E
:100ED80043F030031361254B1B6903F030037B603B
:100EE8007B6800BF214B5B6903F00803082BF9D12D
:100EF80001233B624FF480337B620223BB640323EC
:100F0800FB6404233B65FA237B650223BB6502234C
:100F1800FB6502233B6604237B660023BB66002334
:100F2800FB6607F12003184600F0B8FF0346002BC4
:100F380001D000F01DF81F23BB600323FB600023D2
:100F48003B6100237B610023BB610023FB6107F148
:100F580008030521184601F0D9FB0346002B01D0F0
:100F680000F006F800BF7037BD4680BD0008024497
:100F780080B400AF72B600BFFEE7000080B500AFD6
:100F8800274B284A1A60264B4FF480025A60244B9C
:100F980000229A60224B0722DA60214B00221A6154
:100FA8001F4B00225A611E4B4FF080629A611C4B06
:100FB8004FF00052DA611A4B00221A62184B0022D5
:100FC8005A62174B00229A62154B0722DA62144BB9
:100FD8004FF080425A63124B00229A63104B002252
:100FE800DA630F4B00229A640D4B0022DA640C4B33
:100FF80000221A650A4B00225A65094B00229A659D
:10100800074B0022DA65064B00221A66044803F0F3
:101018008DFF0346002B01D0FFF7AAFF00BF80BD5C
:10102800080500200030014080B5ACB000AF786002
:1010380007F19C0300221A605A609A60DA601A610C
:1010480007F1100388220021184606F0D9FC7B68B6
:101058001B68304A934259D14FF000624FF00003A9
:10106800C7E904230023FB6707F11003184601F0C2
:101078008FFE0346002B01D0FFF77AFF264BD3F8EB
:10108800A430254A43F48053C2F8A430224BD3F845
:10109800A43003F48053FB60FB681F4BD3F88C30FB
:1010A8001D4A43F00103C2F88C301B4BD3F88C3037
:1010B80003F00103BB60BB680123C7F89C3002231F
:1010C800C7F8A0300023C7F8A4300023C7F8A83019
:1010D8000C23C7F8AC3007F19C0319460F4800F001
:1010E80049FDA023C7F89C300223C7F8A03001238C
:1010F800C7F8A4300323C7F8A8300523C7F8AC30D5
:1011080007F19C031946054800F034FD00BFB037CD
:10111800BD4680BD00300140000C02440000024280
:1011280080B582B000AF78600B467B807A884FF03C
:10113800FF337968034803F0F5FF00BF0837BD4661
:1011480080BD00BF0805002080B400AF00BFBD46C9
:101158005DF8047B704780B400AFFEE780B400AF51
:10116800FEE780B400AFFEE780B400AFFEE780B4CE
:1011780000AFFEE780B400AF00BFBD465DF8047B5A
:10118800704780B400AF00BFBD465DF8047B704770
:1011980080B400AF00BFBD465DF8047B704780B5E2
:1011A80000AF00F0EFFA00BF80BD000080B500AFCF
:1011B800024804F0F9FB00BF80BD00BF6C060020A8
:1011C80080B586B000AFF860B9607A6000237B61B3
:1011D8000AE0AFF300800146BB685A1CBA60CAB285
:1011E8001A707B6901337B617A697B689A42F0DB0C
:1011F8007B6818461837BD4680BD80B586B000AFFD
:10120800F860B9607A6000237B6109E0BB685A1C0A
:10121800BA601B78184600F0E9F87B6901337B61F6
:101228007A697B689A42F1DB7B6818461837BD46B5
:1012380080BD80B483B000AF78604FF0FF331846AC
:101248000C37BD465DF8047B704780B483B000AFAF
:10125800786039603B684FF400525A6000231846A2
:101268000C37BD465DF8047B704780B483B000AF8F
:101278007860012318460C37BD465DF8047B70473B
:1012880080B485B000AFF860B9607A600023184672
:101298001437BD465DF8047B7047000080B586B002
:1012A80000AF7860144A154BD31A7B617B693B61A8
:1012B800134B1B68002B02D1114B124A1A60104BBA
:1012C8001A687B6813443A699A4207D206F0E6FB2B
:1012D80003460C221A604FF0FF3309E0084B1B68E5
:1012E800FB60074B1A687B681344054A1360FB6868
:1012F80018461837BD4680BD008000200004000055
:10130800980500205008002080B483B000AF304B0F
:10131800D3F888302E4A43F47003C2F888302D4B36
:1013280001221A602B4B0022DA612A4B00221A6232
:10133800284B1A682749284B13400B60254B00227D
:101348009A62244B0022DA62224B244A5A63214BC8
:1013580000229A631F4B214ADA631E4B00221A644B
:101368001C4B1B681B4A23F480231360194B002273
:101378001A65174B4FF000629A60194B9B6903F08E
:1013880060437B607B68B3F1604F03D07B68B3F147
:10139800404F17D1124BDB6903F00103002B05D036
:1013A8000F4B104ADA600E4B0F4ADA600C4BDB69C0
:1013B8000B4A43F00203D361094BDB69084A43F047
:1013C8000103D36100BF0C37BD465DF8047B70474D
:1013D80000ED00E0000C0244E3EAE2FA80020101B9
:1013E800002002403B2A19087F6E5D4C80B582B010
:1013F80000AF7860391D4FF0FF330122034804F035
:10140800DAF97B6818460837BD4680BD6C060020AF
:1014180080B500AF254B264A1A60244B4FF4E132C1
:101428005A60224B00229A60204B0022DA601F4B40
:1014380000221A611D4B0C225A611C4B00229A6132
:101448001A4B0022DA61194B00221A62174B00224C
:101458005A62164B00229A62144804F05CF903465B
:10146800002B01D0FFF784FD0021104805F0FFFF95
:101478000346002B01D0FFF77BFD00210B4806F047
:1014880034F80346002B01D0FFF772FD074805F03A
:10149800B5FF0346002B01D0FFF76AFD012205497D
:1014A800024804F027FA00BF80BD00BF6C06002088
:1014B800003801406806002080B5ACB000AF786005
:1014C80007F19C0300221A605A609A60DA601A6178
:1014D80007F1100388220021184606F091FA7B686C
:1014E8001B68354A934263D14FF001024FF0000365
:1014F800C7E9042300237B6407F11003184601F0B1
:1015080047FC0346002B01D0FFF732FD2B4BD3F8E5
:10151800A4302A4A43F48043C2F8A430274BD3F8B6
:10152800A43003F48043FB60FB68244BD3F88C3071
:10153800224A43F00103C2F88C30204BD3F88C3098
:1015480003F00103BB60BB684FF40073C7F89C301D
:101558000223C7F8A0300023C7F8A4300223C7F835
:10156800A8300723C7F8AC3007F19C031946144884
:1015780000F000FB4FF48063C7F89C300223C7F8E3
:10158800A0300023C7F8A4300023C7F8A8300723E9
:10159800C7F8AC3007F19C031946094800F0EAFA8D
:1015A800002203213A2000F00CFA3A2000F023FA36
:1015B80000BFB037BD4680BD00380140000C024472
:1015C8000000024280B582B000AF78607B681B687B
:1015D800244A934242D1244B1B881BB2002B38DB90
:1015E800214B1B8803F48043002B11D01F4B1B7821
:1015F8000A2B03D01C4B00221A802AE01A4B1B88A6
:101608006FEA43436FEA53439AB2174B1A8020E0BC
:10161800164B1B780D2B07D1134B1B8843F48043C3
:101628009AB2114B1A8014E00F4B1B88C3F30D03B9
:101638000E4A11780E4AD1540B4B1B8801339AB2CB
:10164800094B1A80084B1B88C72B02D9064B00226E
:101658001A8001220549074804F04CF900BF0837F1
:10166800BD4680BD003801406406002068060020A1
:101678009C0500206C060020DFF834D0002103E030
:101688000C4B5B58435004310B480C4B42189A42A0
:10169800F6D30B4A02E0002342F8043B094B9A4276
:1016A800F9D3FFF731FE06F0FFF9FFF7AFFBFEE7CE
:1016B8000080002078CC0008000000206C0000208A
:1016C8006C00002050080020FEE7000080B500AF45
:1016D800032000F06BF901F0D1F902460B4B1B6AAD
:1016E80003F00F030A49CB5C22FA03F3094A13609B
:1016F800012000F011F80346002B01D0012302E07D
:10170800FFF722FD0023184680BD00BF000C0244ED
:1017180028CC00080400002080B582B000AF7860B3
:10172800154B1B78002B01D1012321E0134B1A68BC
:10173800114B1B7819464FF47A73B3FBF1F3B2FBE4
:10174800F3F3184600F065F90346002B01D0012396
:101758000EE07B680F2B0AD8002279684FF0FF3023
:1017680000F02FF9064A7B681360002300E001238C
:1017780018460837BD4680BD0C0000200400002034
:101788000800002080B400AF064B1B781A46064BB1
:101798001B681344044A136000BFBD465DF8047B10
:1017A800704700BF0C0000200007002080B400AF85
:1017B800034B1B681846BD465DF8047B704700BFA5
:1017C8000007002080B584B000AF7860FFF7EEFF17
:1017D800B8607B68FB60FB68B3F1FF3F05D00A4B3C
:1017E8001B781A46FB681344FB6000BFFFF7DEFF57
:1017F8000246BB68D31AFA689A42F7D800BF00BFFE
:101808001037BD4680BD00BF0C00002080B485B0F5
:1018180000AF78607B6803F00703FB600C4BDB6864
:10182800BB60BA684FF6FF031340BB60FB681A023F
:10183800BB68134343F0BF6343F40033BB60044AFF
:10184800BB68D36000BF1437BD465DF8047B7047A2
:1018580000ED00E080B400AF044BDB681B0A03F026
:1018680007031846BD465DF8047B704700ED00E0AD
:1018780080B483B000AF0346FB80B7F90630002B75
:101888000BDBFB8803F01F020749B7F906305B0939
:10189800012000FA02F241F8232000BF0C37BD46B0
:1018A8005DF8047B704700BF00E100E080B483B0BE
:1018B80000AF03463960FB80B7F90630002B0ADB1E
:1018C8003B68DAB20C49B7F906301201D2B20B44C0
:1018D80083F800230AE03B68DAB20849FB8803F082
:1018E8000F03043B1201D2B20B441A7600BF0C3727
:1018F800BD465DF8047B704700E100E000ED00E0C4
:1019080080B489B000AFF860B9607A60FB6803F012
:101918000703FB61FB69C3F10703042B28BF0423FA
:10192800BB61FB690433062B02D9FB69033B00E06A
:1019380000237B614FF0FF32BB6902FA03F3DA43FD
:10194800BB681A407B699A404FF0FF317B6901FA06
:1019580003F3D9437B680B40134318462437BD462D
:101968005DF8047B7047000080B582B000AF7860F6
:101978007B68013BB3F1807F01D301230FE00A4A62
:101988007B68013B53600F214FF0FF30FFF78EFF5C
:10199800054B00229A60044B07221A600023184660
:1019A8000837BD4680BD00BF10E000E080B582B0BA
:1019B80000AF78607868FFF729FF00BF0837BD4699
:1019C80080BD80B586B000AF0346B9607A60FB8100
:1019D800FFF740FF78617A68B9687869FFF790FF88
:1019E8000246B7F90E3011461846FFF75FFF00BFF1
:1019F8001837BD4680BD80B582B000AF0346FB8076
:101A0800B7F906301846FFF733FF00BF0837BD4661
:101A180080BD80B582B000AF78607868FFF7A4FF1A
:101A2800034618460837BD4680BD80B584B000AF70
:101A38007860FFF7BBFEF8607B68002B01D10123BB
:101A48006BE07B6893F85430DBB2022B08D07B68DC
:101A580020229A657B68002283F84C2001235CE0F1
:101A68007B681B685A697B681B6842F004025A61EC
:101A78007B68052283F8542020E0FFF797FE024692
:101A8800FB68D31A052B19D97B689B6D43F01002AC
:101A98007B689A657B68032283F854207B681B6DFA
:101AA80003F08003002B03D07B685B6F01221A735D
:101AB8007B68002283F84C2001232EE07B681B689A
:101AC8001B6903F40053002BD7D07B681B685A6945
:101AD8007B681B6842F002025A617B68042283F823
:101AE80054207B681B684FF4FE42DA607B68012251
:101AF80083F854207B681B6D03F08003002B07D00C
:101B08007B685B6F01221A737B681B6800229A64EA
:101B18007B68002283F84C20002318461037BD4606
:101B280080BD80B483B000AF78607B68002B01D1A2
:101B3800012319E07B6893F85430DBB2022B04D000
:101B48007B6820229A6501230EE07B68042283F8D3
:101B580054207B681B685B697A68126843F40053F9
:101B680043F004035361002318460C37BD465DF863
:101B7800047B704780B487B000AF78603960002379
:101B88003B6136E13B681A6801213B6901FA03F3BE
:101B98001340FB60FB68002B00F028813B685B6802
:101BA800022B03D03B685B68122B25D13B69DA080E
:101BB8007B68083253F822307B613B6903F00703E6
:101BC8009B000F2202FA03F3DB437A6913407B611F
:101BD8003B681B6903F00F023B6903F007039B0096
:101BE80002FA03F37A6913437B613B69DA087B687D
:101BF8000832796943F822107B681B687B613B696E
:101C08005B00032202FA03F3DB437A6913407B612A
:101C18003B685B6803F003023B695B0002FA03F36D
:101C28007A6913437B617B687A691A603B685B68F1
:101C3800012B0BD03B685B68022B07D03B685B68C5
:101C4800112B03D03B685B68122B30D17B689B68F3
:101C58007B613B695B00032202FA03F3DB437A6989
:101C680013407B613B68DA683B695B0002FA03F367
:101C78007A6913437B617B687A699A607B685B68E1
:101C88007B6101223B6902FA03F3DB437A69134063
:101C98007B613B685B681B0903F001023B6902FA40
:101CA80003F37A6913437B617B687A695A603B68FE
:101CB8005B68032B17D07B68DB687B613B695B0043
:101CC800032202FA03F3DB437A6913407B613B6822
:101CD8009A683B695B0002FA03F37A6913437B61F4
:101CE8007B687A69DA603B685B6803F08053002B95
:101CF8007CD0474A3B699B08183352F823307B61F4
:101D08003B6903F00303DB000F2202FA03F3DB4312
:101D18007A6913407B617B689A0A3E4B13403A69A3
:101D280002F00302D20093407A6913437B61384979
:101D38003B699B0818337A6941F82320344B1B68A8
:101D48007B61FB68DB437A6913407B613B685B68B6
:101D580003F48013002B03D07A69FB6813437B617B
:101D68002B4A7B6913602A4B5B687B61FB68DB430A
:101D78007A6913407B613B685B6803F40013002BAE
:101D880003D07A69FB6813437B61214A7B695360FE
:101D98001F4BD3F884307B61FB68DB437A691340BF
:101DA8007B613B685B6803F40033002B03D07A69DE
:101DB800FB6813437B61164A7B69C2F88430144B75
:101DC800D3F880307B61FB68DB437A6913407B6121
:101DD8003B685B6803F48033002B03D07A69FB68A7
:101DE80013437B610A4A7B69C2F880303B6901333F
:101DF8003B613B681A683B6922FA03F3002B7FF4C6
:101E0800C1AE00BF00BF1C37BD465DF8047B7047FC
:101E1800002002447F7F2F0080B483B000AF786039
:101E28000B467B8013467B707B78002B03D07A8827
:101E38007B689A6102E07A887B689A6200BF0C37F7
:101E4800BD465DF8047B704780B485B000AF78600C
:101E58000B467B807B685B69FB607A88FB68134074
:101E68001A04FB68D9437B880B401A437B689A6144
:101E780000BF1437BD465DF8047B704780B400AFDF
:101E8800054B1B68044A43F00103136000231846FE
:101E9800BD465DF8047B70470004034080B588B0F8
:101EA80000AF78607B68002B02D1012300F028BCCA
:101EB800944BDB6903F01803FB61924B9B6A03F0B8
:101EC8000303BB617B681B6803F01003002B5BD026
:101ED800FB69082B05D0FB69182B14D1BB69022BB1
:101EE80011D17B68DB69002B02D1012300F008BC0B
:101EF800844B9B6923F47C127B681B6A1B04814911
:101F080013438B6140E07B68DB69002B23D07D4B5A
:101F18001B687C4A43F480731360FFF747FC7861C1
:101F280008E0FFF743FC02467B69D31A022B01D96C
:101F38000323E5E3734B1B6803F40073002BF0D015
:101F4800704B9B6923F47C127B681B6A1B046D49E8
:101F580013438B6118E06B4B1B686A4A23F4807348
:101F68001360FFF723FC786108E0FFF71FFC0246C7
:101F78007B69D31A022B01D90323C1E3614B1B6888
:101F880003F40073002BF0D17B681B6803F0010396
:101F9800002B00F0A080FB69102B05D0FB69182BE3
:101FA80009D1BB69032B06D17B685B68002B40F025
:101FB80092800123A4E37B685B68B3F5803F06D178
:101FC800504B1B684F4A43F48033136058E07B68DA
:101FD8005B68002B12D14B4B1B684A4A23F48033B1
:101FE8001360484B1B68474A23F480131360454B22
:101FF8001B68444A23F48023136041E07B685B68D4
:10200800B3F5A02F12D13F4B1B683E4A43F48023FF
:1020180013603C4B1B683B4A23F480131360394B15
:102028001B68384A43F48033136029E07B685B6897
:10203800B3F5A81F12D1334B1B68324A43F48023EF
:102048001360304B1B682F4A43F4801313602D4BE9
:102058001B682C4A43F48033136011E0294B1B683A
:10206800284A23F480331360264B1B68254A23F43F
:1020780080231360234B1B68224A23F480131360C8
:102088007B685B68002B13D0FFF790FB786108E052
:10209800FFF78CFB02467B69D31A642B01D9032313
:1020A8002EE3184B1B6803F40033002BF0D012E02A
:1020B800FFF77CFB786108E0FFF778FB02467B6955
:1020C800D31A642B01D903231AE30E4B1B6803F4BC
:1020D8000033002BF0D17B681B6803F00203002B50
:1020E80000F09A80FB69002B05D0FB69182B49D1B9
:1020F800BB69012B46D17B68DB68002B04D1012327
:10210800FEE200BF000C0244FB69002B1CD19A4B75
:102118001B6803F018027B681B699A4214D0964B1F
:102128001B6823F018027B681B69934913430B60F3
:1021380000F0D0FD914B1B681846FFF7EDFA0346F7
:10214800002B01D00123DBE2FFF730FB786108E0C8
:10215800FFF72CFB02467B69D31A022B01D9032314
:10216800CEE2854B1B6803F00203002BF0D0824BB4
:102178001B6923F4FE027B685B691B047E491343D9
:102188000B6149E07B68DB68002B2CD07A4B1B681D
:1021980023F018027B681B69774913430B60764B61
:1021A8001B68754A43F001031360FFF7FFFA786173
:1021B80008E0FFF7FBFA02467B69D31A022B01D924
:1021C80003239DE26C4B1B6803F00203002BF0D045
:1021D800694B1B6923F4FE027B685B691B04664933
:1021E80013430B6118E0644B1B68634A23F0010337
:1021F8001360FFF7DBFA786108E0FFF7D7FA0246C9
:102208007B69D31A022B01D9032379E25A4B1B6845
:1022180003F00203002BF0D17B681B6803F008036E
:10222800002B3CD07B689B69002B1CD0524BD3F809
:10223800F030514A43F08063C2F8F030FFF7B6FA45
:10224800786108E0FFF7B2FA02467B69D31A022BDD
:1022580001D9032354E2484BD3F8F03003F000636C
:10226800002BEFD01BE0444BD3F8F030424A23F068
:102278008063C2F8F030FFF799FA786108E0FFF759
:1022880095FA02467B69D31A022B01D9032337E258
:10229800394BD3F8F03003F00063002BEFD17B68A3
:1022A8001B6803F00403002B00F0D280344B5B6AF8
:1022B80003F00103002B18D1314B5B6A304A43F01D
:1022C80001035362FFF772FA786108E0FFF76EFACC
:1022D80002467B69D31A022B01D9032310E2284B4B
:1022E8005B6A03F00103002BF0D07B689B68012B2D
:1022F80008D1214BD3F8F0301F4A43F00103C2F84C
:10230800F03074E07B689B68002B18D11A4BD3F827
:10231800F030194A23F00103C2F8F030164BD3F815
:10232800F030154A23F08003C2F8F030124BD3F88E
:10233800F030114A23F00403C2F8F03057E07B680C
:102348009B68052B1ED10C4BD3F8F0300A4A43F09A
:102358000403C2F8F030084BD3F8F030064A23F0F3
:102368008003C2F8F030044BD3F8F030024A43F04F
:102378000103C2F8F0303AE0000C024408000020E3
:10238800000802447B689B68852B18D1A24BD3F8C0
:10239800F030A14A43F00403C2F8F0309E4BD3F862
:1023A800F0309D4A43F08003C2F8F0309A4BD3F8DE
:1023B800F030994A43F00103C2F8F03017E0964B29
:1023C800D3F8F030944A23F00103C2F8F030924B6E
:1023D800D3F8F030904A23F00403C2F8F0308E4B63
:1023E800D3F8F0308C4A23F08003C2F8F0307B68D1
:1023F8009B68002B16D0FFF7D9F978610AE0FFF740
:10240800D5F902467B69D31A41F28832934201D941
:10241800032375E1804BD3F8F03003F00203002B5F
:10242800EDD015E0FFF7C2F978610AE0FFF7BEF9D1
:1024380002467B69D31A41F28832934201D90323B9
:102448005EE1754BD3F8F03003F00203002BEDD1B9
:102458007B681B6803F02003002B36D07B685B6A1F
:10246800002B19D06C4B1B686B4A43F480531360E4
:10247800FFF79CF9786108E0FFF798F902467B6955
:10248800D31A022B01D903233AE1634B1B6803F4E7
:102498000053002BF0D018E05F4B1B685E4A23F412
:1024A80080531360FFF782F9786108E0FFF77EF93F
:1024B80002467B69D31A022B01D9032320E1564B2C
:1024C8001B6803F40053002BF0D17B689B6A002B38
:1024D80000F01581FB69182B00F0AF807B689B6AC0
:1024E800022B40F086804C4B1B684B4A23F08073CC
:1024F8001360FFF75BF9786108E0FFF757F90246C8
:102508007B69D31A022B01D90323F9E0424B1B68DC
:1025180003F00073002BF0D13F4B9B6A23F47C53EC
:1025280023F003037A68D16A7A68126B12020A43AD
:10253800394913438B627B685B6B013BC3F3080229
:102548007B689B6B013B5B029BB21A437B68DB6B2E
:10255800013B1B0403F4FE031A437B681B6C013B1D
:102568001B0603F0FE432C4913434B632A4B9B6A1B
:10257800294A23F0100393627B68DB6C264ADB0050
:102588009363254B9B6A244A43F010039362224BC2
:102598009B6A23F00C027B685B6C1F4913438B62B8
:1025A8001D4B9B6A23F020027B689B6C1A491343DE
:1025B8008B62194B9B6A184A43F480339362164B1B
:1025C8001B68154A43F080731360FFF7EFF87861D2
:1025D80008E0FFF7EBF802467B69D31A022B01D912
:1025E80003238DE00C4B1B6803F00073002BF0D025
:1025F80085E0094B1B68084A23F080731360FFF7D6
:10260800D5F878610AE0FFF7D1F802467B69D31A5A
:10261800022B03D9032373E0000C02443A4B1B68D6
:1026280003F00073002BEED1374B9B6A364A23F434
:10263800E02323F00303936261E0334B9B6A3B6121
:10264800314B5B6BFB607B689B6A012B31D03B692C
:1026580003F003027B68DB6A9A422AD13B691B0AB2
:1026680003F03F027B681B6B9A4222D1FB68C3F3DD
:1026780008027B685B6B013B9A421AD1FB685B0AD4
:1026880003F07F027B689B6B013B9A4211D1FB6888
:102698001B0C03F07F027B68DB6B013B9A4208D17D
:1026A800FB681B0E03F07F027B681B6C013B9A42A0
:1026B80001D0012324E0144B9B6BDB08C3F30C020D
:1026C8007B68DB6C9A421AD00F4B9B6A0E4A23F048
:1026D80010039362FFF76AF8786100BFFFF766F8A6
:1026E80002467B699342F9D07B68DB6C064ADB00C3
:1026F8009363054B9B6A044A43F0100393620023DB
:1027080018462037BD4680BD000C024480B584B011
:1027180000AF786039607B68002B01D101239EE10E
:10272800834B1B6803F00F033A689A4210D9804B19
:102738001B6823F00F027E493B6813430B607C4BF8
:102748001B6803F00F033A689A4201D0012386E11F
:102758007B681B6803F01003002B12D07B685A6952
:10276800744B1B6A1B0A03F070039A4209D9714B18
:102778001B6A23F4E0427B685B691B026D491343C3
:102788000B627B681B6803F00803002B12D07B6880
:102798001A69684B1B6A1B0903F070039A4209D92E
:1027A800644B1B6A23F4E0627B681B691B01614967
:1027B80013430B627B681B6803F00403002B10D0E3
:1027C8007B68DA685B4B1B6A03F070039A4208D98E
:1027D800584B1B6A23F070027B68DB68554913432A
:1027E8000B627B681B6803F00203002B10D07B6828
:1027F8009A68504B1B6A03F00F039A4208D94D4B55
:102808001B6A23F00F027B689B684A4913430B62DB
:102818007B681B6803F00103002B00F093807B6842
:102828005B68032B07D1434B1B6803F00073002B35
:1028380021D1012313E17B685B68022B07D13D4B53
:102848001B6803F40033002B15D1012307E17B68D3
:102858005B68012B07D1374B1B6803F40073002B0F
:1028680009D10123FBE0334B1B6803F00203002B63
:1028780001D10123F3E02F4BDB6923F003027B68CE
:102888005B682C491343CB61FEF790FFF8607B68C7
:102898005B68032B12D10AE0FEF788FF0246FB684B
:1028A800D31A41F28832934201D90323D7E0214B4E
:1028B800DB6903F01803182BEED143E07B685B68F3
:1028C800022B12D10AE0FEF771FF0246FB68D31A09
:1028D80041F28832934201D90323C0E0154BDB69EA
:1028E80003F01803102BEED12CE07B685B68012BFA
:1028F80022D10AE0FEF75AFF0246FB68D31A41F2DA
:102908008832934201D90323A9E00A4BDB6903F01B
:102918001803082BEED115E0FEF748FF0246FB68C6
:10292800D31A41F28832934206D9032397E000BFB5
:1029380000200240000C02444B4BDB6903F01803F3
:10294800002BE9D17B681B6803F00203002B10D031
:102958007B689A68444B1B6A03F00F039A4208D2BB
:10296800414B1B6A23F00F027B689B683E49134367
:102978000B623E4B1B6803F00F033A689A4210D271
:102988003A4B1B6823F00F0238493B6813430B602E
:10299800364B1B6803F00F033A689A4201D00123B3
:1029A8005DE07B681B6803F00403002B10D07B6894
:1029B800DA682D4B1B6A03F070039A4208D22A4B3F
:1029C8001B6A23F070027B68DB68274913430B629C
:1029D8007B681B6803F00803002B12D07B681A6918
:1029E800214B1B6A1B0903F070039A4209D21E4B44
:1029F8001B6A23F4E0627B681B691B011A491343B5
:102A08000B627B681B6803F01003002B12D07B68F5
:102A18005A69154B1B6A1B0A03F070039A4209D2C4
:102A2800114B1B6A23F4E0427B685B691B020E4969
:102A380013430B6200F022F802460B4B1B6A03F0AB
:102A48000F030B49CB5C22FA03F30A4A13600A4BC3
:102A58001B681846FEF760FE0346FB72FB7A1846B1
:102A68001037BD4680BD00BF000C02440020024064
:102A780028CC0008040000200800002080B489B099
:102A880000AF8C4BDB6903F01803082B02D18A4B8B
:102A9800FB6107E1874BDB6903F01803002B12D1B8
:102AA800844B1B6803F02003002B09D0814B1B6863
:102AB800DB0803F00303814A22FA03F3FB61F1E028
:102AC8007E4BFB61EEE07B4BDB6903F01803102BB8
:102AD80002D17B4BFB61E5E0764BDB6903F0180321
:102AE800182B40F0DD80734B9B6A03F003037B6176
:102AF800704B9B6A1B0A03F03F033B616D4B9B6A5B
:102B08001B0903F00103FB606A4B9B6BDB08C3F3F3
:102B18000C03FA6802FB03F307EE903AF8EE677AC3
:102B2800C7ED027A3B69002B00F0B7807B69012B67
:102B380003D07B69032B56D077E05E4B1B6803F00C
:102B48002003002B2DD05B4B1B68DB0803F003032D
:102B58005A4A22FA03F37B607B6807EE903AF8EE54
:102B6800676A3B6907EE903AF8EE677A86EEA77ACD
:102B7800504B5B6BC3F3080307EE903AF8EE676AB5
:102B880097ED026ADFED4F5AC6EE257A76EEA77A00
:102B9800F7EE006A77EEA67A67EE277AC7ED067A2F
:102BA80065E03B6907EE903AF8EE677ADFED466A32
:102BB80086EEA77A3F4B5B6BC3F3080307EE903AA8
:102BC800F8EE676A97ED026ADFED3E5AC6EE257A9F
:102BD80076EEA77AF7EE006A77EEA67A67EE277A9E
:102BE800C7ED067A43E03B6907EE903AF8EE677A5C
:102BF800DFED366A86EEA77A2E4B5B6BC3F30803CC
:102C080007EE903AF8EE676A97ED026ADFED2D5A03
:102C1800C6EE257A76EEA77AF7EE006A77EEA67A00
:102C280067EE277AC7ED067A21E03B6907EE903A0E
:102C3800F8EE677ADFED266A86EEA77A1D4B5B6BA6
:102C4800C3F3080307EE903AF8EE676A97ED026A55
:102C5800DFED1C5AC6EE257A76EEA77AF7EE006A03
:102C680077EEA67A67EE277AC7ED067A00BF114B92
:102C78005B6B5B0A03F07F0301333B603B6807EE45
:102C8800903AB8EE677AD7ED066AC6EE877AFCEE18
:102C9800E77A17EE903AFB6104E00023FB6101E05C
:102CA800064BFB61FB6918462437BD465DF8047B7B
:102CB800704700BF000C024400093D000090D0039B
:102CC80000127A00000000460024744C0024F44AE4
:102CD8000024744A80B500AFFFF7D0FE0246084BC7
:102CE8001B6A03F00F030749CB5C03F01F0322FAAA
:102CF80003F3054A1360044B1B68184680BD00BFE8
:102D0800000C024428CC00080400002080B500AF65
:102D1800FFF7E0FF0246064B1B6A1B0903F0070397
:102D28000449CB5C03F01F0322FA03F3184680BD65
:102D3800000C024438CC000880B500AFFFF7CAFF8A
:102D48000246064B1B6A1B0A03F007030449CB5CC7
:102D580003F01F0322FA03F3184680BD000C024457
:102D680038CC000880B500AFFFF7B4FF0246064B29
:102D78001B6A1B0B03F007030449CB5C03F01F031A
:102D880022FA03F3184680BD000C024438CC000830
:102D98002DE9B04FAAB000AFC7F89400002387F818
:102DA800A330002387F8A230D7F89430D3E9002362
:102DB80002F08074002554EA05030BD0B84BD3F811
:102DC800E83023F04041D7F894301B6BB44A0B43EA
:102DD800C2F8E830D7F89430D3E9002302F00108AC
:102DE8004FF0000958EA090338D0D7F894305B6BE4
:102DF800052B19D801A252F823F000BF392E00087C
:102E08001D2E0008312E0008392E0008392E000822
:102E1800392E0008D7F894300833184601F0EEFF31
:102E2800034687F8A33004E0012387F8A33000E0C5
:102E380000BF97F8A330002B0CD1994BD3F8D830AA
:102E480023F00701D7F894305B6B954A0B43C2F81F
:102E5800D83003E097F8A33087F8A230D7F8943039
:102E6800D3E9002302F0020A4FF0000B5AEA0B03E1
:102E78003CD0D7F894309B6B282B1BD0282B15D827
:102E8800202B19D0202B11D8182B17D0182B0DD880
:102E9800002B15D0082B09D1D7F8943008331846E1
:102EA80001F0ACFF034687F8A3300AE0012387F856
:102EB800A33006E000BF04E000BF02E000BF00E06E
:102EC80000BF97F8A330002B0CD1754BD3F8D8303E
:102ED80023F03801D7F894309B6B714A0B43C2F842
:102EE800D83003E097F8A33087F8A230D7F89430A9
:102EF800D3E9002302F00403C7F888300023C7F899
:102F08008C30D7E922120B46134340D0D7F89430BF
:102F1800DB6BB3F5A07F1ED0B3F5A07F17D8B3F550
:102F2800807F1AD0B3F5807F11D8C02B17D0C02B63
:102F38000DD8002B15D0402B09D1D7F89430083381
:102F4800184601F05BFF034687F8A3300AE0012327
:102F580087F8A33006E000BF04E000BF02E000BF2E
:102F680000E000BF97F8A330002B0CD14C4BD3F8EE
:102F7800D83023F4E071D7F89430DB6B484A0B4320
:102F8800C2F8D83003E097F8A33087F8A230D7F812
:102F98009430D3E9002302F48053C7F8803000232B
:102FA800C7F88430D7E920120B46134343D0D7F82B
:102FB80094301B6CB3F1A06F21D0B3F1A06F1AD875
:102FC800B3F1806F1DD0B3F1806F14D8B3F1407F97
:102FD80019D0B3F1407F0ED8002B16D0B3F1807F03
:102FE80009D1D7F894300833184601F007FF034693
:102FF80087F8A3300AE0012387F8A33006E000BF72
:1030080004E000BF02E000BF00E000BF97F8A33073
:10301800002B0CD1224BD3F8E03023F0E061D7F835
:1030280094301B6C1E4A0B43C2F8E03003E097F85B
:10303800A33087F8A230D7F89430D3E9002302F4FC
:103048000053BB670023FB67D7E91E120B461343E7
:103058003ED0D7F894305B6CB3F5403F1BD0B3F546
:10306800403F14D8B3F5003F17D0B3F5003F0ED852
:10307800002B17D0B3F5803F09D1D7F89430083327
:10308800184601F0BBFE034687F8A3300BE0012386
:1030980087F8A33007E000BF05E000BF03E000BFEA
:1030A800000C024400BF97F8A330002B0CD1A54BAD
:1030B800D3F8E43023F44031D7F894305B6CA14A5C
:1030C8000B43C2F8E43003E097F8A33087F8A23046
:1030D800D7F89430D3E9002302F480433B670023F8
:1030E8007B67D7E91C120B4613433BD0D7F89430C3
:1030F8009B6CB3F5402F1BD0B3F5402F14D8B3F514
:10310800002F17D0B3F5002F0ED8002B14D0B3F52D
:10311800802F09D1D7F894300833184601F06EFE95
:10312800034687F8A33008E0012387F8A33004E0BA
:1031380000BF02E000BF00E000BF97F8A330002BFB
:103148000CD1804BD3F8E43023F44021D7F89430E5
:103158009B6C7C4A0B43C2F8E43003E097F8A33039
:1031680087F8A230D7F89430D3E9002302F48033EB
:10317800BB660023FB66D7E91A120B46134333D00C
:10318800D7F89430DB6CB3F1007F15D0B3F1007F32
:103198000ED8002B12D0B3F1807F09D1D7F8943024
:1031A8000833184601F02AFE034687F8A33006E0E4
:1031B800012387F8A33002E000BF00E000BF97F8C2
:1031C800A330002B0CD15F4BD3F8E43023F04071CF
:1031D800D7F89430DB6C5B4A0B43C2F8E43003E069
:1031E80097F8A33087F8A230D7F89430D3E90023B2
:1031F8000021396603F480537B66D7E918120B4621
:10320800134333D0D7F894301B6DB3F1006F15D04A
:10321800B3F1006F0ED8002B12D0B3F1806F09D133
:10322800D7F894300833184601F0E8FD034687F8CC
:10323800A33006E0012387F8A33002E000BF00E0D6
:1032480000BF97F8A330002B0CD13E4BD3F8E430E5
:1032580023F04061D7F894301B6D3A4A0B43C2F80B
:10326800E43003E097F8A33087F8A230D7F8943019
:10327800D3E900230021B96503F40063FB65D7E9AE
:1032880016120B4613430ED02E4BDB692D4A23F43E
:103298000043D3612B4BD969D7F89430D3F88030E9
:1032A800284A0B43D361D7F89430D3E9002302F4BA
:1032B80000333B6500237B65D7E914120B461343A3
:1032C80046D0D7F894305B6DB3F5A06F21D0B3F535
:1032D800A06F1AD8B3F5806F1DD0B3F5806F14D8DE
:1032E800B3F5407F19D0B3F5407F0ED8002B16D028
:1032F800B3F5807F09D1D7F894300833184601F028
:103308007DFD034687F8A3300AE0012387F8A33040
:1033180006E000BF04E000BF02E000BF00E000BF1D
:1033280097F8A330002B0FD1064BD3F8DC3023F4E9
:10333800E061D7F894305B6D024A0B43C2F8DC3089
:1033480006E000BF000C024497F8A33087F8A230CB
:10335800D7F89430D3E9002302F48023BB64002318
:10336800FB64D7E912120B46134343D0D7F89430C5
:103378009B6DB3F5A04F21D0B3F5A04F1AD8B3F584
:10338800804F1DD0B3F5804F14D8B3F5405F19D0E6
:10339800B3F5405F0ED8002B16D0B3F5805F09D186
:1033A800D7F894300833184601F028FD034687F80B
:1033B800A3300AE0012387F8A33006E000BF04E049
:1033C80000BF02E000BF00E000BF97F8A330002B69
:1033D8000CD1B64BD3F8DC3023F4E041D7F8943065
:1033E8009B6DB24A0B43C2F8DC3003E097F8A33078
:1033F80087F8A230D7F89430D3E9002302F40013F9
:103408003B6400237B64D7E910120B46134330D08A
:10341800D7F894305B6E052B0FD8032B11D2012BF4
:1034280011D9022B09D1D7F894300833184601F086
:10343800E5FC034687F8A33006E0012387F8A330AC
:1034480002E000BF00E000BF97F8A330002B0CD1CA
:10345800964BD3F8E83023F00701D7F894305B6E29
:10346800924A0B43C2F8E83003E097F8A33087F894
:10347800A230D7F89430D3E900230021B96303F4CC
:103488000073FB63D7E90E120B46134322D0D7F81B
:1034980094309B6E002B05D0082B05D0012387F8AC
:1034A800A33002E000BF00E000BF97F8A330002B74
:1034B8000CD17E4BD3F8E83023F00801D7F89430CC
:1034C8009B6E7A4A0B43C2F8E83003E097F8A330C2
:1034D80087F8A230D7F89430D3E9002302F00073BC
:1034E8003B6300237B63D7E90C120B46134300F0C0
:1034F800B0806F4B5B6A6E4A43F001035362FEF77C
:1035080055F9C7F89C000BE0FEF750F90246D7F8CA
:103518009C30D31A022B03D9032387F8A33005E084
:10352800634B5B6A03F00103002BEDD097F8A330DF
:10353800002B40F08A805D4BD3F8F03003F44073E1
:10354800C7F8A430D7F8A430002B22D0D7F894308D
:103558009B6FD7F8A4209A421BD0544BD3F8F03075
:1035680023F44073C7F8A430504BD3F8F0304F4AD7
:1035780043F48033C2F8F0304C4BD3F8F0304B4A68
:1035880023F48033C2F8F030484AD7F8A430C2F8A0
:10359800F030D7F8A43003F00103002B19D0FEF760
:1035A80005F9C7F89C000DE0FEF700F90246D7F8C8
:1035B8009C30D31A41F28832934203D9032387F807
:1035C800A33006E0394BD3F8F03003F00203002BA8
:1035D800EAD097F8A330002B32D1D7F894309B6FFC
:1035E80003F44073B3F5407F0FD1304BDB6923F40C
:1035F8007C51D7F894309B6F1B0923F07F4323F04D
:1036080030032A4A0B43D36105E0284BDB69274A7C
:1036180023F47C53D361254BD3F8F030234A23F4A9
:103628004073C2F8F030214BD3F8F010D7F894303B
:103638009B6FC3F30B031D4A0B43C2F8F03008E03D
:1036480097F8A33087F8A23003E097F8A33087F8FB
:10365800A230D7F89430D3E9002302F08063BB622C
:103668000023FB62D7E90A120B46134338D0D7F878
:1036780094301B6E302B14D0302B0ED8202B12D048
:10368800202B0AD8002B15D0102B06D1074B9B6A8C
:10369800064A43F4003393620DE0012387F8A33010
:1036A80009E000BF07E000BF05E000BF000C0244CE
:1036B8000008024400BF97F8A330002B0CD1B54B8B
:1036C800D3F8E83023F03002D7F894301B6EB149B4
:1036D8001343C1F8E83003E097F8A33087F8A23025
:1036E800D7F89430D3E9002302F000633B6200234B
:1036F8007B62D7E908120B4613433CD0D7F89430C5
:10370800DB6E042B1DD801A252F823F029370008DC
:10371800373700084B37000853370008533700087D
:103728009C4B9B6A9B4A43F4003393620EE0D7F8A4
:1037380094300833184601F061FB034687F8A3303C
:1037480004E0012387F8A33000E000BF97F8A33016
:10375800002B0CD18F4BD3F8E03023F00702D7F8B9
:103768009430DB6E8B491343C1F8E03003E097F8DF
:10377800A33087F8A230D7F89430D3E9002302F0B9
:103788008053BB610023FB61D7E906120B46134344
:103798003CD0D7F894301B6F202B1FD0202B19D882
:1037A800182B1DD0182B15D8002B02D0082B07D0AA
:1037B80010E0784B9B6A774A43F40033936210E039
:1037C800D7F894300833184601F018FB034687F8F9
:1037D800A33006E0012387F8A33002E000BF00E031
:1037E80000BF97F8A330002B0CD16A4BD3F8E03018
:1037F80023F03802D7F894301B6F66491343C1F899
:10380800E03003E097F8A33087F8A230D7F8943077
:10381800D3E9002302F000533B6100237B61D7E921
:1038280004120B4613433ED0D7F894305B6FB3F5C0
:10383800807F20D0B3F5807F19D8C02B1DD0C02B36
:1038480015D8002B02D0402B07D010E0514B9B6AB3
:10385800504A43F40033936210E0D7F894300833A9
:10386800184601F0CBFA034687F8A33006E0012397
:1038780087F8A33002E000BF00E000BF97F8A3304C
:10388800002B0CD1434BD3F8E03023F4E072D7F887
:1038980094305B6F3F491343C1F8E03003E097F879
:1038A800A33087F8A230D7F89430D3E90023002159
:1038B800B96003F00403FB60D7E902120B46134317
:1038C80038D0D7F89430DB6DB3F5007F0ED0B3F560
:1038D800007F15D8002B17D0B3F5807F10D12D4B62
:1038E8009B6A2C4A43F4003393620EE0D7F8943075
:1038F8000833184601F082FA034687F8A33004E03B
:10390800012387F8A33000E000BF97F8A330002B0D
:103918000CD1204BD3F8E83023F44072D7F8943018
:10392800DB6D1C491343C1F8E83003E097F8A33076
:1039380087F8A230D7F89430D3E900230021396002
:1039480003F010037B60D7E900120B46134339D00C
:10395800D7F89430DB6F302B1ED0302B15D8102BB6
:1039680002D0202B07D010E00A4B9B6A094A43F487
:103978000033936211E0D7F894300833184601F009
:103988003DFA034687F8A33007E0012387F8A33000
:1039980003E000BF000C024400BF97F8A330002BDF
:1039A8000CD10C4BD3F8E43023F03002D7F8943024
:1039B800DB6F08491343C1F8E43003E097F8A330FC
:1039C80087F8A23097F8A2301846A837BD46BDE858
:1039D800B08F00BF000C024480B48BB000AF786099
:1039E800AD4B5B6BC3F308033B62AB4B9B6A03F0C5
:1039F8000303FB61A84B9B6A1B0A03F03F03BB61EF
:103A0800A54B9B6A03F010037B61A34B9B6BDB0800
:103A1800C3F30C037A6902FB03F307EE903AF8EE5E
:103A2800677AC7ED047ABB69002B00F02681FB6931
:103A3800032B53D0FB69032B6FD8FB69012B03D0F1
:103A4800FB69022B2BD068E0934B1B68DB0803F063
:103A58000303924A22FA03F3FB60FB6807EE903AED
:103A6800F8EE676ABB6907EE903AF8EE677A86EE79
:103A7800A77A3B6A07EE903AF8EE676A97ED046A10
:103A8800DFED875AC6EE257A76EEA77AF7EE006A5A
:103A980077EEA67A67EE277AC7ED097A68E0BB6900
:103AA80007EE903AF8EE677ADFED7E6A86EEA77A3F
:103AB8003B6A07EE903AF8EE676A97ED046ADFED25
:103AC800785AC6EE257A76EEA77AF7EE006A77EE90
:103AD800A67A67EE277AC7ED097A49E0BB6907EE4F
:103AE800903AF8EE677ADFED706A86EEA77A3B6A5D
:103AF80007EE903AF8EE676A97ED046ADFED685AC8
:103B0800C6EE257A76EEA77AF7EE006A77EEA67A01
:103B180067EE277AC7ED097A2AE05F4B1B68DB0856
:103B280003F003035D4A22FA03F3FB60FB6807EE28
:103B3800903AF8EE676ABB6907EE903AF8EE677A52
:103B480086EEA77A3B6A07EE903AF8EE676A97ED39
:103B5800046ADFED535AC6EE257A76EEA77AF7EEB9
:103B6800006A77EEA67A67EE277AC7ED097A00BF72
:103B7800494B1B6803F00073B3F1007F21D1464B1A
:103B88009B6A03F48033002B17D0434B5B6B5B0AB3
:103B980003F07F0307EE903AF8EE677AB7EE007A03
:103BA80037EE877AD7ED096AC6EE877AFCEEE77AB0
:103BB80017EE902A7B681A6006E07B6800221A607C
:103BC80002E07B6800221A60334B1B6803F0007325
:103BD800B3F1007F21D1304B9B6A03F40033002BF3
:103BE80017D02D4B5B6B1B0C03F07F0307EE903A4D
:103BF800F8EE677AB7EE007A37EE877AD7ED096A7A
:103C0800C6EE877AFCEEE77A17EE902A7B685A6050
:103C180006E07B6800225A6002E07B6800225A6056
:103C28001D4B1B6803F00073B3F1007F21D11A4BC1
:103C38009B6A03F48023002B17D0174B5B6B1B0E7A
:103C480003F07F0307EE903AF8EE677AB7EE007A52
:103C580037EE877AD7ED096AC6EE877AFCEEE77AFF
:103C680017EE902A7B689A6010E07B6800229A60C1
:103C78000CE07B6800229A6008E07B6800221A60EA
:103C88007B6800225A607B6800229A6000BF2C374C
:103C9800BD465DF8047B7047000C02440090D003D9
:103CA800000000460024744A0024F44A80B48BB013
:103CB80000AF7860AD4BDB6BC3F308033B62AB4BE3
:103CC800DB6A03F00303FB61A84BDB6A1B0A03F002
:103CD8003F03BB61A54BDB6A03F010037B61A34B79
:103CE8001B6CDB08C3F30C037A6902FB03F307EED2
:103CF800903AF8EE677AC7ED047ABB69002B00F0BA
:103D08002681FB69032B53D0FB69032B6FD8FB6912
:103D1800012B03D0FB69022B2BD068E0934B1B6867
:103D2800DB0803F00303924A22FA03F3FB60FB6803
:103D380007EE903AF8EE676ABB6907EE903AF8EE3C
:103D4800677A86EEA77A3B6A07EE903AF8EE676ADA
:103D580097ED046ADFED875AC6EE257A76EEA77AE4
:103D6800F7EE006A77EEA67A67EE277AC7ED097A4A
:103D780068E0BB6907EE903AF8EE677ADFED7E6A95
:103D880086EEA77A3B6A07EE903AF8EE676A97EDF7
:103D9800046ADFED785AC6EE257A76EEA77AF7EE52
:103DA800006A77EEA67A67EE277AC7ED097A49E0C6
:103DB800BB6907EE903AF8EE677ADFED706A86EE37
:103DC800A77A3B6A07EE903AF8EE676A97ED046ABD
:103DD800DFED685AC6EE257A76EEA77AF7EE006A26
:103DE80077EEA67A67EE277AC7ED097A2AE05F4B65
:103DF8001B68DB0803F003035D4A22FA03F3FB6048
:103E0800FB6807EE903AF8EE676ABB6907EE903AEE
:103E1800F8EE677A86EEA77A3B6A07EE903AF8EEF4
:103E2800676A97ED046ADFED535AC6EE257A76EE97
:103E3800A77AF7EE006A77EEA67A67EE277AC7EDDB
:103E4800097A00BF494B1B6803F00063B3F1006FA8
:103E580021D1464BDB6A03F48033002B17D0434B48
:103E6800DB6B5B0A03F07F0307EE903AF8EE677AA4
:103E7800B7EE007A37EE877AD7ED096AC6EE877A09
:103E8800FCEEE77A17EE902A7B681A6006E07B68FA
:103E980000221A6002E07B6800221A60334B1B681C
:103EA80003F00063B3F1006F21D1304BDB6A03F4F8
:103EB8000033002B17D02D4BDB6B1B0C03F07F035B
:103EC80007EE903AF8EE677AB7EE007A37EE877A1F
:103ED800D7ED096AC6EE877AFCEEE77A17EE902AE4
:103EE8007B685A6006E07B6800225A6002E07B68C3
:103EF80000225A601D4B1B6803F00063B3F1006F8A
:103F080021D11A4BDB6A03F48023002B17D0174BFF
:103F1800DB6B1B0E03F07F0307EE903AF8EE677A2F
:103F2800B7EE007A37EE877AD7ED096AC6EE877A58
:103F3800FCEEE77A17EE902A7B689A6010E07B68BF
:103F480000229A600CE07B6800229A6008E07B6897
:103F580000221A607B6800225A607B6800229A60FF
:103F680000BF2C37BD465DF8047B7047000C024447
:103F78000090D003000000460024744A0024F44A4C
:103F880080B58CB000AFC7E90001D7E9002302F182
:103F98007E410B434BD1C44BD3F8F03003F440734C
:103FA800BB62C14BD3F8F03003F00203022B08D1F7
:103FB800BB6AB3F5807F04D14FF40043FB6200F085
:103FC80014BFB94BD3F8F03003F00063B3F1006FBE
:103FD80008D1BB6AB3F5007F04D14FF4FA43FB6202
:103FE80000F003BFB04B1B6803F40033B3F5003F88
:103FF80019D1BB6AB3F5407F15D1AB4BDB6903F42C
:104008007C53B3F5007F0AD3A74BDB691B0A03F087
:104018003F03A64AB2FBF3F3FB6200F0E6BE0023BF
:10402800FB6200F0E2BE0023FB6200F0DEBED7E9CF
:104038000023A3F5805152EA010300F08E83D7E9EB
:104048000023012A73F5805380F0CC86D7E900233A
:10405800A3F5007152EA010300F0AA82D7E9002310
:10406800012A73F5007380F0BD86D7E90023A3F118
:10407800100152EA010300F08186D7E90023012AE2
:1040880073F1100380F0AE86D7E90023191F52EAB6
:10409800010300F0B184D7E90023012A73F1040376
:1040A80080F0A086D7E9002302F160410B4300F0BD
:1040B800AA85D7E900237E498A4273F1000380F07C
:1040C8009186D7E9002302F170410B4300F0328555
:1040D800D7E9002377498A4273F1000380F082868A
:1040E800D7E9002302F178410B4300F0BC84D7E9FB
:1040F800002371498A4273F1000380F07386D7E97F
:10410800002302F17C410B4300F0F285D7E900233C
:104118006A498A4273F1000380F06486D7E9002374
:10412800A2F500110B4300F0E581D7E900236449AB
:104138008A4273F1000380F05586D7E90023A2F57F
:1041480080210B4300F0CC83D7E900235D498A42E4
:1041580073F1000380F04686D7E90023A2F5003109
:104168000B4300F03183D7E9002357498A4273F1A2
:10417800000380F03786D7E90023A2F580310B438E
:1041880000F0BB82D7E90023B2F1011F73F10003ED
:1041980080F02886D7E90023A2F580410B4300F080
:1041A8006D82D7E9002344F201018A4273F10003CA
:1041B80080F01886D7E90023A2F500510B4300F0E0
:1041C8001E82D7E9002342F201018A4273F10003FB
:1041D80080F00886D7E90023A2F580510B4300F050
:1041E8003781D7E9002341F201018A4273F10003C4
:1041F80080F0F885D7E90023111F0B4300F0D28027
:10420800D7E90023052A73F1000380F0EB85D7E98D
:104218000023511E0B4306D0D7E90023911E0B4300
:104228006CD000F0DFBD204BD3F8D83003F0070383
:10423800BB62BB6A002B04D1FEF77EFDF86200F07A
:10424800D4BD194B1B6803F00063B3F1006F0AD1AA
:10425800BB6A012B07D107F10C031846FFF726FDAF
:104268003B69FB6248E0104B1B6803F00203022B1A
:104278000CD1BB6A032B09D10B4B1B68DB0803F07D
:104288000303124A22FA03F3FB6235E0064B1B686C
:1042980003F40073B3F5007F1CD1BB6A042B19D15A
:1042A8000B4BFB6228E000BF000C024400127A00AE
:1042B80001000020010000100100000801000004B6
:1042C8000100200001000400010002000090D0035A
:1042D80000093D009F4BD3F8F03003F00203022B96
:1042E80006D1BB6A052B03D14FF40043FB6203E000
:1042F8000023FB6200F079BD00F077BD954BD3F841
:10430800D83003F03803BB62BB6A002B04D1FEF738
:10431800FDFCF86200F069BD8E4B1B6803F000637A
:10432800B3F1006F0AD1BB6A082B07D107F10C0360
:104338001846FFF7BBFC3B69FB6231E0854B1B6805
:1043480003F00203022B0CD1BB6A182B09D1814B55
:104358001B68DB0803F003037F4A22FA03F3FB62BE
:104368001EE07C4B1B6803F40073B3F5007F05D196
:10437800BB6A202B02D1794BFB6211E0754BD3F855
:10438800F03003F00203022B06D1BB6A282B03D1BD
:104398004FF40043FB6203E00023FB6200F025BDFD
:1043A80000F023BD6B4BD3F8D83003F4E073BB6245
:1043B800BB6A002B04D1FEF7A9FCF86200F015BD1A
:1043C800644B1B6803F00063B3F1006F0AD1BB6A4A
:1043D800402B07D107F10C031846FFF767FC3B6930
:1043E800FB6233E05B4B1B6803F00203022B0CD12A
:1043F800BB6AC02B09D1574B1B68DB0803F00303CA
:10440800554A22FA03F3FB6220E0524B1B6803F47F
:104418000073B3F5007F06D1BB6AB3F5807F02D184
:104428004E4BFB6212E04B4BD3F8F03003F0020323
:10443800022B07D1BB6AB3F5A07F03D14FF4004329
:10444800FB6203E00023FB6200F0CFBC00F0CDBCB0
:10445800404BD3F8E03003F0E063BB62BB6A002B4B
:1044680004D1FEF77FFCF86200F0BFBCBB6AB3F171
:10447800807F08D107F10C031846FFF717FC3B694A
:10448800FB6200F0B2BC334B1B6803F00203022B43
:104498000DD1BB6AB3F1407F09D12E4B1B68DB08F5
:1044A80003F003032C4A22FA03F3FB6220E0294BB2
:1044B8001B6803F40073B3F5007F06D1BB6AB3F140
:1044C800806F02D1254BFB6212E0224BD3F8F0300B
:1044D80003F00203022B07D1BB6AB3F1A06F03D12B
:1044E8004FF40043FB6203E00023FB6200F07DBC55
:1044F80000F07BBC174BD3F8E83003F00703BB622E
:10450800BB6A002B04D1FEF7E5FBF86200F06DBC36
:10451800BB6A012B04D1FEF7B1FAF86200F065BC62
:10452800BB6A022B08D107F10C031846FFF7BEFB44
:104538007B69FB6200F059BC064B1B6803F400332F
:10454800B3F5003F0ED1BB6A032B0BD1044BFB62C2
:104558002CE000BF000C02440090D00300093D008D
:1045680000127A00954B1B6803F00203022B0CD152
:10457800BB6A042B09D1914B1B68DB0803F00303CA
:104588008F4A22FA03F3FB6210E08C4B1B6803F49A
:104598000073B3F5007F05D1BB6A052B02D1894BA7
:1045A800FB6203E00023FB6200F01FBC00F01DBCAF
:1045B800824BD3F8E83003F00803BB627F4BD3F893
:1045C800F03003F00203022B06D1BB6A002B03D1A3
:1045D8004FF40043FB6211E0784BD3F8F03003F05E
:1045E8000063B3F1006F06D1BB6A082B03D14FF407
:1045F800FA43FB6202E00023FB62F6E3F5E36F4B4C
:10460800D3F8E43003F44033BB62BB6A002B03D118
:10461800FEF77CFBF862E8E3BB6AB3F5803F07D19D
:1046280007F10C031846FFF741FB7B69FB62DCE3EB
:10463800624B1B6803F00203022B0DD1BB6AB3F572
:10464800003F09D15D4B1B68DB0803F003035C4A9C
:1046580022FA03F3FB6210E0584B1B6803F4007363
:10466800B3F5007F06D1BB6AB3F5403F02D1554B85
:10467800FB6202E00023FB62B7E3B6E34F4BD3F8DB
:10468800E43003F44023BB62BB6A002B03D1FEF77E
:104698003DFBF862A9E3BB6AB3F5802F07D107F1A8
:1046A8000C031846FFF702FB7B69FB629DE3434B53
:1046B8001B6803F00203022B0DD1BB6AB3F5002F70
:1046C80009D13E4B1B68DB0803F003033C4A22FA7E
:1046D80003F3FB6210E0394B1B6803F40073B3F576
:1046E800007F06D1BB6AB3F5402F02D1354BFB6280
:1046F80002E00023FB6278E377E3304BD3F8E43041
:1047080003F04073BB62BB6A002B03D1FEF7FEFACD
:10471800F8626AE3BB6AB3F1807F07D107F10C0343
:104728001846FFF7C3FA7B69FB625EE3234B1B68FD
:1047380003F00203022B0DD1BB6AB3F1007F09D14C
:104748001E4B1B68DB0803F003031D4A22FA03F320
:10475800FB624AE30023FB6247E3184BD3F8E430DB
:1047680003F04063BB62BB6A002B03D1FEF7FAFA81
:10477800F8623AE3BB6AB3F1806F07D107F10C0323
:104788001846FFF793FA7B69FB622EE30B4B1B6815
:1047980003F00203022B0DD1BB6AB3F1006F09D1FC
:1047A800064B1B68DB0803F00303054A22FA03F3F0
:1047B800FB621AE30023FB6217E300BF000C02440C
:1047C8000090D00300093D009B4BD3F8DC3003F484
:1047D800E063BB62BB6AB3F5A06F44D0BB6AB3F5B4
:1047E800A06F79D8BB6AB3F5806F2DD0BB6AB3F5DB
:1047F800806F71D8BB6AB3F5407F17D0BB6AB3F539
:10480800407F69D8BB6A002B04D0BB6AB3F5807FB0
:1048180004D061E0FEF7A6FAF86260E007F10C0345
:104828001846FFF743FAFB68FB6258E0824BD3F85F
:10483800F03003F00203022B03D14FF40043FB6274
:104848004DE00023FB624AE07B4BD3F8F03003F0E5
:104858000063B3F1006F03D14FF4FA43FB623EE00B
:104868000023FB623BE0744BD3F8E83003F040438D
:104878007B62714B1B6803F00203022B0CD17B6A2D
:10488800002B09D16C4B1B68DB0803F003036B4A50
:1048980022FA03F3FB621EE0674B1B6803F4007304
:1048A800B3F5007F06D17B6AB3F1804F02D1644B28
:1048B800FB6210E0604B1B6803F40033B3F5003F64
:1048C80006D17B6AB3F1004F02D15E4BFB6202E076
:1048D8000023FB6203E002E00023FB6200BF84E2E6
:1048E800554BD3F8DC3003F4E043BB62BB6AB3F545
:1048F800A04F44D0BB6AB3F5A04F79D8BB6AB3F5D3
:10490800804F2DD0BB6AB3F5804F71D8BB6AB3F521
:10491800405F17D0BB6AB3F5405F69D8BB6A002B0C
:1049280004D0BB6AB3F5805F04D061E0FEF7EEF90E
:10493800F86260E007F10C031846FFF7B7F9FB6867
:10494800FB6258E03C4BD3F8F03003F00203022B33
:1049580003D14FF40043FB624DE00023FB624AE0C1
:10496800354BD3F8F03003F00063B3F1006F03D197
:104978004FF4FA43FB623EE00023FB623BE02E4B20
:10498800D3F8E83003F040437B622B4B1B6803F0FD
:104998000203022B0CD17B6A002B09D1264B1B6822
:1049A800DB0803F00303254A22FA03F3FB621EE047
:1049B800214B1B6803F40073B3F5007F06D17B6AB3
:1049C800B3F1804F02D11E4BFB6210E01A4B1B68FB
:1049D80003F40033B3F5003F06D17B6AB3F1004F0F
:1049E80002D1184BFB6202E00023FB6203E002E005
:1049F8000023FB6200BFF8E10F4BD3F8E83003F463
:104A08004073BB620C4B1B6803F40033B3F5003FE3
:104A180005D1BB6A002B02D10A4BFB62E5E1BB6AF8
:104A2800B3F5807F10D107F118031846FEF7D4FFBD
:104A3800FB69FB62D9E100BF000C02440090D0037F
:104A480000093D0000127A00BB6AB3F5007F07D168
:104A580007F10C031846FFF729F93B69FB62C4E12B
:104A68000023FB62C1E19D4BD3F8E03003F007035C
:104A7800BB62BB6A042B59D801A252F823F000BFCD
:104A88009D4A0008AD4A0008354B0008BD4A000899
:104A9800C34A000807F118031846FEF79DFFFB6993
:104AA800FB6246E007F10C031846FFF7FFF8FB68C6
:104AB800FB623EE08A4BFB623BE0884BD3F8E83070
:104AC80003F040437B62854B1B6803F00203022B13
:104AD8000CD17B6A002B09D1804B1B68DB0803F0E3
:104AE8000303804A22FA03F3FB621EE07B4B1B6838
:104AF80003F40073B3F5007F06D17B6AB3F1804FEE
:104B080002D1794BFB6210E0744B1B6803F400334D
:104B1800B3F5003F06D17B6AB3F1004F02D1734B66
:104B2800FB6202E00023FB6203E002E00023FB6279
:104B380000BF5AE1694BD3F8E03003F03803BB6299
:104B4800BB6A202B22D0BB6A202B58D8BB6A182BF3
:104B580019D0BB6A182B52D8BB6A002B03D0BB6A8A
:104B6800082B08D04BE007F118031846FEF734FF6E
:104B7800FB69FB6246E007F10C031846FFF796F85D
:104B8800FB68FB623EE0564BFB623BE0534BD3F8BD
:104B9800E83003F040437B62504B1B6803F002038C
:104BA800022B0CD17B6A002B09D14C4B1B68DB080C
:104BB80003F003034B4A22FA03F3FB621EE0474B60
:104BC8001B6803F40073B3F5007F06D17B6AB3F169
:104BD800804F02D1444BFB6210E0404B1B6803F44A
:104BE8000033B3F5003F06D17B6AB3F1004F02D121
:104BF8003E4BFB6202E00023FB6203E002E000237D
:104C0800FB6200BFF1E0354BD3F8E03003F4E0730A
:104C1800BB62BB6AB3F5807F23D0BB6AB3F5807FE4
:104C280058D8BB6AC02B19D0BB6AC02B52D8BB6AF4
:104C3800002B03D0BB6A402B08D04BE007F11803C8
:104C48001846FEF7C9FEFB69FB6246E007F10C0354
:104C58001846FFF72BF8FB68FB623EE0204BFB622F
:104C68003BE01E4BD3F8E83003F040437B621B4B1C
:104C78001B6803F00203022B0CD17B6A002B09D1BD
:104C8800164B1B68DB0803F00303164A22FA03F3EA
:104C9800FB621EE0114B1B6803F40073B3F5007F41
:104CA80006D17B6AB3F1804F02D10F4BFB6210E053
:104CB8000A4B1B6803F40033B3F5003F06D17B6A47
:104CC800B3F1004F02D1094BFB6202E00023FB6203
:104CD80003E002E00023FB6200BF86E0000C024410
:104CE8000080BB000090D00300093D0000127A004C
:104CF800404BD3F8E83003F03003BB623D4B1B68F0
:104D080003F40053B3F5005F05D1BB6A002B02D151
:104D1800394BFB6231E0374B1B6803F00073B3F18A
:104D2800007F0AD1BB6A102B07D107F11803184678
:104D3800FEF752FEFB69FB621FE02E4BD3F8F03002
:104D480003F00203022B06D1BB6A202B03D14FF4D8
:104D58000043FB6211E0274BD3F8F03003F0006307
:104D6800B3F1006F06D1BB6A302B03D14FF4FA437D
:104D7800FB6202E00023FB6237E036E01D4BD3F80C
:104D8800E43003F03003BB62BB6A102B07D107F194
:104D980018031846FEF720FEFB69FB6225E0154B59
:104DA8001B6803F00063B3F1006F0AD1BB6A202BC4
:104DB80007D107F10C031846FEF778FF3B69FB6241
:104DC8000FE00C4B1B6803F40053B3F5005F05D1EB
:104DD800BB6A302B02D1084BFB6202E00023FB6266
:104DE80003E002E00023FB6200BFFB6A184630378D
:104DF800BD4680BD000C0244006CDC0280B584B066
:104E080000AF7860484B1B68474A23F08063136003
:104E1800FCF7CCFCF86008E0FCF7C8FC0246FB682D
:104E2800D31A022B01D903237AE03F4B1B6803F006
:104E38000063002BF0D13C4BDB6A23F47C5323F056
:104E480003037A6811687A68526812020A4336497D
:104E58001343CB627B689B68013BC3F308027B6802
:104E6800DB68013B5B029BB21A437B681B69013B11
:104E78001B0403F4FE031A437B685B69013B1B06B2
:104E880003F0FE4328491343CB63274BDB6A23F027
:104E98000C027B689B6924491343CB62224BDB6A73
:104EA80023F020027B68DB691F491343CB621E4B4A
:104EB800DA6A7B685B6A1C491343CB621A4BDB6A6C
:104EC800194A23F01003D362174B1B6C23F47F435A
:104ED80023F0F8037A68126AD200134913430B646B
:104EE800114BDB6A104A43F01003D3620E4B1B6868
:104EF8000D4A43F080631360FCF758FCF86008E043
:104F0800FCF754FC0246FB68D31A022B01D9032391
:104F180006E0054B1B6803F00063002BF0D000236C
:104F280018461037BD4680BD000C024480B584B0D9
:104F380000AF78607B68002B01D10123E7E07B6834
:104F480000229A627B681B68002B05D17B68DB68AE
:104F58000F2B01D90123DAE0786800F0C1FBF86073
:104F68007B681B68002B02D1FB68082B11D87B6873
:104F78001B68694A934209D07B681B68674A934259
:104F880004D07B681B68664A934204D1FB68102BE7
:104F980001D90123BBE07B6893F88930DBB2002B91
:104FA80006D17B68002283F888207868FCF73CF8F3
:104FB8007B68022283F889207B681B681A687B68F3
:104FC8001B6822F001021A607B681B689B6803F467
:104FD800F813BB607B689B69B3F1806F19D17B685C
:104FE8005B68B3F5800F03D17B689B6B002B08D0FF
:104FF8007B685B68002B0CD17B689B6BB3F1805F8F
:1050080007D17B681B681A687B681B6842F480526A
:105018001A607B685B6803F48003002B0FD07B6801
:10502800DB68062B0BD97B681B681B6823F480712F
:105038007B681A6D7B681B680A431A6007E07B6807
:105048001B681A687B681B6822F480721A607B6888
:10505800DA697B689B6A1A43BB681A437B68DB6B17
:1050680042EA03017B68DA687B681B680A439A6036
:105078007B685A6B7B685B6A1A437B689B6B1A4335
:105088007B689B691A437B681B691A437B685B6969
:105098001A437B681B6A1A437B685B681A437B6800
:1050A800DB6C1A437B689B681A437B689B6C1A43CA
:1050B8007B689B6D1A437B68DB6D42EA03017B6862
:1050C8001A6E7B681B680A43DA607B681B681A6D76
:1050D8007B681B6822F001021A657B685B6803F431
:1050E8008003002B0AD07B681B68DB6823F0004133
:1050F8007B685A6D7B681B680A43DA607B6800220C
:10510800C3F88C207B68012283F889200023184685
:105118001037BD4680BD00BF003001400038004058
:10512800003C004080B58AB002AFF860B9603B60CF
:105138001346FB80FB681B682033FB610023FB766A
:10514800FB6893F88830012B01D10223F5E1FB6855
:10515800012283F88820FCF729FB7861FB6893F823
:105168008930DBB2012B07D00223FB76FB680022D3
:1051780083F88820FB7EE0E1BB68002B02D0FB8827
:10518800002B07D10123FB76FB68002283F88820D7
:10519800FB7ED2E1FB68032283F88920FB680022AA
:1051A800C3F88C20FB68BA685A66FB68FA88A3F8CB
:1051B8006820FB68FA88A3F86A20FB680022DA6690
:1051C800FB680022A3F87020FB680022A3F8722075
:1051D800FB680022DA67FB6800229A67FB689B6815
:1051E800B3F5C02F08D1FB681B681A68FB681B68F9
:1051F80042F400621A6009E0FB681B68DB6823F46C
:10520800C022FB681B6842F40032DA60FB681B6846
:105218005B681B0C1B04F988FA6812680B4353601F
:10522800FB681B681A68FB681B6842F001021A6079
:10523800FB685B68B3F5800F07D1FB681B681A68C9
:10524800FB681B6842F400721A60FB68DB680F2B6E
:1052580056D9FB681B688D4A93424AD0FB681B6885
:105268008B4A934245D0FB681B688A4A934247D1D0
:105278003FE0FB681B685B6903F00203022B14D153
:10528800FB685A6EFB681B6812681A62FB685B6EE3
:105298001A1DFB685A66FB68B3F86A309BB2013B7B
:1052A8009AB2FB68A3F86A2023E0FCF77FFA02466B
:1052B8007B69D31A3A689A4203D83B68B3F1FF3F37
:1052C80002D13B68002B14D1F86800F03BF9FB6869
:1052D800002283F88820FB68D3F88C3043F480726E
:1052E800FB68C3F88C20FB68012283F8892003231C
:1052F80023E1FB68B3F86A309BB2002BB9D1F6E022
:10530800FB68DB68072B40F2EB805DE0FB681B68FD
:105318005B6903F00203022B32D1FB68B3F86A30F1
:105328009BB2012B18D9FB68DB6B002B14D0FB68F0
:105338005A6EFB681B6812681A62FB685B6E1A1D5E
:10534800FB685A66FB68B3F86A309BB2023B9AB2B4
:10535800FB68A3F86A2037E0FB685B6E1A88FB6974
:105368001A80FB685B6E9A1CFB685A66FB68B3F888
:105378006A309BB2013B9AB2FB68A3F86A2023E02B
:10538800FCF714FA02467B69D31A3A689A4203D8A2
:105398003B68B3F1FF3F02D13B68002B14D1F8689A
:1053A80000F0D0F8FB68002283F88820FB68D3F867
:1053B8008C3043F48072FB68C3F88C20FB680122B0
:1053C80083F889200323B8E0FB68B3F86A309BB2FE
:1053D800002B9BD18BE0FB681B685B6903F0020321
:1053E800022B59D1FB68B3F86A309BB2032B18D94A
:1053F800FB68DB6B402B14D9FB685A6EFB681B6893
:1054080012681A62FB685B6E1A1DFB685A66FB68B5
:10541800B3F86A309BB2043B9AB2FB68A3F86A20DF
:105428005EE0FB68B3F86A309BB2012B17D9FB68C2
:10543800DB6B002B13D0FB685B6E1A88FB691A8044
:10544800FB685B6E9A1CFB685A66FB68B3F86A30A7
:105458009BB2023B9AB2FB68A3F86A2040E0FB6863
:105468005A6EFB681B68203312781A70FB685B6EF3
:105478005A1CFB685A66FB68B3F86A309BB2013B5A
:105488009AB2FB68A3F86A202AE000BF0030014006
:1054980000380040003C0040FCF788F902467B6970
:1054A800D31A3A689A4203D83B68B3F1FF3F02D156
:1054B8003B68002B14D1F86800F044F8FB68002220
:1054C80083F88820FB68D3F88C3043F48072FB683B
:1054D800C3F88C20FB68012283F8892003232CE081
:1054E800FB68B3F86A309BB2002B7FF474AF7B691A
:1054F80000933B6800220821F86800F0C3F80346CF
:10550800002B07D0FB68D3F88C3043F02002FB68EF
:10551800C3F88C20F86800F015F8FB68002283F8BF
:105528008820FB68012283F88920FB68D3F88C3037
:10553800002B01D0012300E0FB7E18462037BD4632
:1055480080BD00BF80B485B000AF78607B681B6801
:105558005B69FB607B681B689A697B681B6842F023
:1055680008029A617B681B689A697B681B6842F02D
:1055780010029A617B681B681A687B681B6822F0B6
:1055880001021A607B681B681B697A68126823F439
:105598005B7323F0030313617B681B689A687B685D
:1055A8001B6822F440429A607B6893F88930DBB22A
:1055B800042B14D0FB6803F02003002B0FD07B686A
:1055C800D3F88C3043F080027B68C3F88C207B686A
:1055D8001B689A697B681B6842F020029A617B68A5
:1055E80093F88930DBB2032B14D0FB6803F0400337
:1055F800002B0FD07B68D3F88C3043F004027B6813
:10560800C3F88C207B681B689A697B681B6842F02A
:1056180040029A61FB6803F40073002B0FD07B688B
:10562800D3F88C3043F001027B68C3F88C207B6888
:105638001B689A697B681B6842F400729A61FB6870
:1056480003F48073002B0FD07B68D3F88C3043F0C1
:1056580008027B68C3F88C207B681B689A697B68A2
:105668001B6842F480729A617B680022A3F86A2062
:105678007B680022A3F8722000BF1437BD465DF88E
:10568800047B704780B584B000AFF860B9603B60B8
:105698001346FB7110E0FCF789F80246BB69D31A80
:1056A8003A689A4203D83B68B3F1FF3F02D13B689E
:1056B800002B01D103230FE0FB681B685A69BB6804
:1056C8001340BA689A420CBF01230023DBB21A4682
:1056D800FB799A42DFD0002318461037BD4680BDBB
:1056E80080B485B000AF78607B68DB6B5B09013301
:1056F800FB607B68DB680133BB60BB680733DB0892
:10570800BB60BB68FA6802FB03F318461437BD4652
:105718005DF8047B704780B582B000AF78607B6825
:10572800002B01D1012342E07B68D3F88830002B9D
:1057380006D17B68002283F884207868FBF7BCFEDA
:105748007B682422C3F888207B681B681A687B68FA
:105758001B6822F001021A607B689B6A002B02D04A
:10576800786800F093FD786800F012FC0346012B7E
:1057780001D101231BE07B681B685A687B681B68A2
:1057880022F490425A607B681B689A687B681B68A1
:1057980022F02A029A607B681B681A687B681B687B
:1057A80042F001021A60786800F012FE03461846BB
:1057B8000837BD4680BD80B58AB002AFF860B960D1
:1057C8003B601346FB80FB68D3F88830202B40F001
:1057D8008B80BB68002B02D0FB88002B01D10123F2
:1057E80083E0FB681B689B6803F08003802B07D16C
:1057F800FB681B689A68FB681B6822F080029A6045
:10580800FB680022C3F89020FB682122C3F8882097
:10581800FBF7CCFF7861FB68FA88A3F85420FB6893
:10582800FA88A3F85620FB689B68B3F5805F08D117
:10583800FB681B69002B04D10023FB61BB68BB61BB
:1058480003E0BB68FB610023BB6130E03B68009369
:105858007B6900228021F86800F064FE0346002B73
:1058680005D0FB682022C3F8882003233DE0FB69AC
:10587800002B0BD1BB691B881A46FB681B68C2F357
:1058880008029A62BB690233BB6107E0FB691A78B8
:10589800FB681B689A62FB690133FB61FB68B3F81C
:1058A80056309BB2013B9AB2FB68A3F85620FB68BE
:1058B800B3F856309BB2002BC8D13B6800937B6984
:1058C80000224021F86800F02DFE0346002B05D089
:1058D800FB682022C3F88820032306E0FB68202207
:1058E800C3F88820002300E0022318462037BD466D
:1058F80080BD000080B58AB000AFF860B96013467B
:10590800FB80FB68D3F88C30202B46D1BB68002B7A
:1059180002D0FB88002B01D101233FE0FB68002265
:10592800DA66FB681B689B6803F04003402B07D1CD
:10593800FB681B689A68FB681B6822F040029A6043
:10594800FB681B68174A93421FD0FB681B685B689B
:1059580003F40003002B18D0FB681B687B617B698C
:1059680053E8003F3B613B6943F080637B62FB681F
:105978001B681A467B6A3B62FA61F9693A6A41E830
:105988000023BB61BB69002BE6D1FB881A46B968C6
:10599800F86800F02FFE034600E002231846283777
:1059A800BD4680BD0024004480B5AEB000AF78602D
:1059B8007B681B68DB69C7F8B4307B681B681B68A9
:1059C800C7F8B0307B681B689B68C7F8AC30D7F85D
:1059D800B42040F60F031340C7F8A830D7F8A83012
:1059E800002B1BD1D7F8B43003F02003002B15D0BF
:1059F800D7F8B03003F02003002B05D1D7F8AC302E
:105A080003F08053002B09D07B685B6F002B00F0FC
:105A180093827B685B6F786898478DE2D7F8A830E7
:105A2800002B00F0FD80D7F8AC207A4B1340002BF8
:105A380006D1D7F8B020784B1340002B00F0F08047
:105A4800D7F8B43003F00103002B11D0D7F8B030E9
:105A580003F48073002B0BD07B681B6801221A6249
:105A68007B68D3F8903043F001027B68C3F890203C
:105A7800D7F8B43003F00203002B11D0D7F8AC30BC
:105A880003F00103002B0BD07B681B6802221A620B
:105A98007B68D3F8903043F004027B68C3F8902009
:105AA800D7F8B43003F00403002B11D0D7F8AC308A
:105AB80003F00103002B0BD07B681B6804221A62D9
:105AC8007B68D3F8903043F002027B68C3F89020DB
